:020000040000fa
:080000000001040000000000f3
:020000040000fa
:040008002c030000c5
:020000040000fa
:04000c0032030000bb
:020000040000fa
:040010005c0300008d
:020000040000fa
:0400140038030000ad
:020000040000fa
:040018003e030000a3
:020000040000fa
:04001c005c03000081
:020000040000fa
:040020005c0300007d
:020000040000fa
:040024005c03000079
:020000040000fa
:040028005c03000075
:020000040000fa
:04002c005c03000071
:020000040000fa
:040030005c0300006d
:020000040000fa
:04003400ae02000018
:020000040000fa
:040038005c03000065
:020000040000fa
:04003c005c03000061
:020000040000fa
:040040005c0300005d
:020000040000fa
:040044005c03000059
:020000040000fa
:040048005c03000055
:020000040000fa
:04004c005c03000051
:020000040000fa
:040050005c0300004d
:020000040000fa
:0400540004020000a2
:020000040000fa
:040058005c03000045
:020000040000fa
:04005c005c03000041
:020000040000fa
:040060005c0300003d
:020000040000fa
:040064005c03000039
:020000040000fa
:040068005c03000035
:020000040000fa
:04006c005c03000031
:020000040000fa
:040070005c0300002d
:020000040000fa
:040074005c03000029
:020000040000fa
:04007800040300007d
:020000040000fa
:04007c005c03000021
:020000040000fa
:040080005c0300001d
:020000040000fa
:040084005c03000019
:020000040000fa
:040088005c03000015
:020000040000fa
:04008c005c03000011
:020000040000fa
:040090005c0300000d
:020000040000fa
:040094005c03000009
:020000040000fa
:040098005c03000005
:020000040000fa
:04009c005c03000001
:020000040000fa
:0400a0005c030000fd
:020000040000fa
:0400a4005c030000f9
:020000040000fa
:0400a8005c030000f5
:020000040000fa
:0400ac005c030000f1
:020000040000fa
:0400b0005c030000ed
:020000040000fa
:0400b4005c030000e9
:020000040000fa
:0400b8005c030000e5
:020000040000fa
:0400bc005c030000e1
:020000040000fa
:0400c0005c030000dd
:020000040000fa
:0400c4005c030000d9
:020000040000fa
:0400c8005c030000d5
:020000040000fa
:0400cc005c030000d1
:020000040000fa
:0400d0005c030000cd
:020000040000fa
:0400d4005c030000c9
:020000040000fa
:0400d8005c030000c5
:020000040000fa
:0400dc005c030000c1
:020000040000fa
:0400e0005c030000bd
:020000040000fa
:0400e4005c030000b9
:020000040000fa
:0400e8005c030000b5
:020000040000fa
:0400ec005c030000b1
:020000040000fa
:0400f0005c030000ad
:020000040000fa
:0400f4005c030000a9
:020000040000fa
:0400f8005c030000a5
:020000040000fa
:0400fc005c030000a1
:020000040000fa
:040100005c0300009c
:020000040000fa
:040104005c03000098
:020000040000fa
:040108005c03000094
:020000040000fa
:04010c005c03000090
:020000040000fa
:040110005c0300008c
:020000040000fa
:040114005c03000088
:020000040000fa
:040118005c03000084
:020000040000fa
:04011c005c03000080
:020000040000fa
:040120005c0300007c
:020000040000fa
:040124005c03000078
:020000040000fa
:040128005c03000074
:020000040000fa
:04012c005c03000070
:020000040000fa
:040130005c0300006c
:020000040000fa
:040134005c03000068
:020000040000fa
:040138005c03000064
:020000040000fa
:04013c005c03000060
:020000040000fa
:040140005c0300005c
:020000040000fa
:040144005c03000058
:020000040000fa
:040148005c03000054
:020000040000fa
:04014c005c03000050
:020000040000fa
:040150005c0300004c
:020000040000fa
:040154005c03000048
:020000040000fa
:040158005c03000044
:020000040000fa
:04015c005c03000040
:020000040000fa
:040160005c0300003c
:020000040000fa
:040164005c03000038
:020000040000fa
:040168005c03000034
:020000040000fa
:04016c005c03000030
:020000040000fa
:040170005c0300002c
:020000040000fa
:040174005c03000028
:020000040000fa
:040178005c03000024
:020000040000fa
:04017c005c03000020
:020000040000fa
:040180005c0300001c
:020000040000fa
:040184005c03000018
:020000040000fa
:040188005c03000014
:020000040000fa
:04018c005c03000010
:020000040000fa
:040190005c0300000c
:020000040000fa
:040194005c03000008
:020000040000fa
:040198005c03000004
:020000040000fa
:04019c005c03000000
:020000040000fa
:0401a0005c030000fc
:020000040000fa
:0401a4005c030000f8
:020000040000fa
:0401a8005c030000f4
:020000040000fa
:0401ac005c030000f0
:020000040000fa
:0401b0005c030000ec
:020000040000fa
:0401b4005c030000e8
:020000040000fa
:0401b8005c030000e4
:020000040000fa
:0401bc005c030000e0
:020000040000fa
:0401c0005c030000dc
:020000040000fa
:0401c4005c030000d8
:020000040000fa
:0401c8005c030000d4
:020000040000fa
:0401cc005c030000d0
:020000040000fa
:0401d0005c030000cc
:020000040000fa
:0401d4005c030000c8
:020000040000fa
:0401d8005c030000c4
:020000040000fa
:0401dc005c030000c0
:020000040000fa
:0401e0005c030000bc
:020000040000fa
:0401e4005c030000b8
:020000040000fa
:0401e8005c030000b4
:020000040000fa
:0401ec005c030000b0
:020000040000fa
:0401f0005c030000ac
:020000040000fa
:0401f4005c030000a8
:020000040000fa
:0401f8005c030000a4
:020000040000fa
:0401fc005c030000a0
:020000040000fa
:100200008f8020000e7f24000e0188000000000077
:10021000000020000000e000020032000001200089
:100220002002880014000700250107000000e000fc
:1002300003003a0080422000010020000200370045
:100240000000200001002000810f7000010032003a
:1002500014000700000020000000e000020032004f
:1002600000000200000000001e0402000000000068
:100270000040da000000fe004440a90020002000f9
:100280000000e00003003200100020009001880010
:100290004440a800000006008a1f78008b1f7800e9
:1002a00000000600a1028800800478000000eb0036
:1002b0001f003700e284440054a0b4009905ba003e
:1002c000e284440054a0b4009906ba00e2844400d9
:1002d00054a0b4000006eb00476fde00fd07b2003b
:1002e000ae018800636ce10003003a00eaff0700fa
:1002f0000000eb000e003700606ce10008003a00df
:10030000004deb000a05e800020039003420ec0043
:100310000af0a0008b05e900f9ff3e000400370059
:100320006168e100010032000086eb000b0007006d
:1003300019c7ba001905ba000e04e00003003a001c
:100340000a00e000dbff3a0000000600fe07b200f2
:10035000ae0288008a047800f5ff37000cd0a300b5
:10036000e20f4d001c00390089027800354dba00bb
:100370000a05e800020039003420ec000af0a00071
:100380008b05e9000f003200254dba000a05e80090
:10039000020039003420ec000af0a0008b05e900cf
:1003a000080032000c00e0000600320015cdba0053
:1003b0000a05e800020039003420ec000af0a00031
:1003c0008b05e9008984e80054a0b4000b00e0002c
:1003d000e2ff3a00000006009902ba00055d7800cd
:1003e0008b05e900f7ff3200c82ade00055d7800c2
:1003f0008b05e900f3ff32000c00e000f1ff320052
:1004000019ddba00eeff37003600f800809fbe000d
:10041000829fbe00849fbe00869fbe000200fa003d
:10042000a8000700004f780010c3b3009e4078007a
:1004300080cf50000c003a00104080000000e00027
:1004400004003a0010002000104088007ac6a8007e
:10045000020037000228ef007ac6a9001e4078008b
:10046000a70007003500370020c3b3009e40780086
:1004700080cf500009003a00104080000000e000ea
:1004800003003a0000c3b3009d0007002b003700b3
:1004900010c3b3009a0007002800370030c3b30030
:1004a0009e40780080cf50000a003a000040800053
:1004b0000003b00000408800004080000040780049
:1004c0008f000700004080000003b100004088005a
:1004d0001a00370040c3b3009e40780080cf500020
:1004e00004003a000028ef001e4078008400070056
:1004f0001200370050c3b3009e40780080cf5000f8
:1005000007003a009860a9007be6a9007bc6a90015
:100510007ba6a9001e40780079000700070037007d
:1005200060c3b3009e40780080cf500003003a00c3
:100530009860a8001e407800710007008960a9003b
:100540000080fa004f03be004f02be004f01be0004
:100550004f00be003600f9000040060000a0fe007b
:100560003200f8003400f800881f780018002000de
:10057000a801880018002000980188004f04780026
:100580000000fa00304080000000e00007003a0060
:100590007be6a8007bc6a9007ba6a90030408000ae
:1005a0000000e80030408800110037003040800033
:1005b000e10f500007003a007be6a9007bc6a800c7
:1005c0007ba6a900304080000000e8003040880091
:1005d0000700370030408000e20f500004003a006e
:1005e0007be6a9007bc6a9007ba6a8000628ef0031
:1005f0008860a9000080fa003400f9003200f90098
:100600000080fe0000400600801f78000000fa0015
:10061000204080000000e00005003a00e0d0230008
:10062000900c880010002000204088000300370054
:1006300070e82100900c88000428ef000040800042
:100640000000e800004088008a80a9000080fa00cd
:100650004f007800004006000000fa008020a9004a
:10066000ffff37000000fa008060a900ffff37009d
:100670000000fa008040a900ffff37000000fa00e8
:100680008080a900ffff37000000fa008020a90049
:10069000ffff37000000fa008060a900ffff37006d
:1006a0000000fa008040a900ffff37000000fa00b8
:1006b0008080a900ffff37000000fa00ffff37002d
:0406c0000000050031
:020000040000fa
:1006c4000000fa0000000000d01c800061006000ff
:1006d4000000e000fcff3200d01c800062006000db
:1006e4000000e000010032009a23a900f01c800001
:1006f400004078000080fa00000006000200fa00c2
:10070400004f780000000000d11c80000020200071
:10071400008060000000e000fbff3a001e00fb00c8
:10072400e01c88000080fa00000006000000fa00c7
:10073400a13d800000fc2f00008060000020a0008c
:10074400a03d8800b13e800000f82f0000806000ca
:100754003000b300b03e880090012000001d8800e6
:100764009a23ef009823ef0099e3a8009b43a80085
:100774009ba3a9009be3a8008960a9009960a80035
:1007840061058000f0ff28008080600000002600e2
:1007940001007000600588000080fa000000060077
:1007a4000000fa00f0f32100b03388009421ef0038
:1007b4009021ef0070e82100900c88004105800032
:1007c400f0ff280080806000000025000100700018
:1007d400400588008860a9009860a800a10c8000ea
:1007e4000003200001007000a00c880095e1a8001f
:1007f4000080fa00000006000000fa00813c80003e
:10080400f00f2c0080806000005020000100700078
:10081400803c880081e0a900900580007000b3004e
:10082400900588008a80a9009a80a8008220a800e8
:100834000080fa00000006000000fa00d8ff07005c
:0c084400baff0700ecff0700ffff3700c1
:020000040000fa
:100850000008000008000000800000000000000008
:020000040000fa
:100860000000fa000080fa00000006000000fa0014
:080870000080fa000000060000
:020000040000fa
:020000040005f5
:045e0000ffff0000a0
:020000040000fa
:020000040005f5
:045e2000ffffff0081
:020000040000fa
:020000040005f5
:045e3000f8ffff0078
:020000040000fa
:020000040005f5
:045e3800b7ffff00b1
:020000040000fa
:020000040005f5
:045e40009fffff00c1
:020000040000fa
:020000040005f5
:045e4800ffffff0059
:020000040000fa
:020000040005f5
:045e5000dfffff0071
:020000040000fa
:020000040005f5
:045e5800ffffff0049
:00000001FF
